:100000000C9462000C948A000C948A000C948A0070
:100010000C948A000C948A000C948A000C948A0038
:100020000C948A000C948A000C948A000C94BB05F2
:100030000C948A000C948A000C948A000C948A0018
:100040000C9471050C948A000C943F050C941905CE
:100050000C948A000C948A000C948A000C948A00F8
:100060000C948A000C948A000000000023002600F3
:10007000290000000000240027002A0000000000E2
:10008000250028002B0004040404040404040202D4
:100090000202020203030303030301020408102007
:1000A0004080010204081020010204081020000012
:1000B0000008000201000003040700000000000027
:1000C0000000BC0611241FBECFEFD8E0DEBFCDBFBD
:1000D00011E0A0E0B1E0E4E4F5E102C005900D928A
:1000E000A435B107D9F722E0A4E5B1E001C01D9223
:1000F000AD33B207E1F710E0C2E6D0E004C02197CB
:10010000FE010E949A0AC136D107C9F70E9446072C
:100110000C94A00A0C9400008F929F92AF92BF9211
:10012000FF920F931F93CF93DF93853B910511F4BB
:1001300084EB90E0F09022022BE02F1508F44CC0E5
:100140002091240208E512E0021B110927FD1395F6
:10015000000F111F000F111F20912302C8E8D0E0EB
:10016000C21BD10927FDD395CC0FDD1FCC0FDD1F9E
:100170004E010D2E000CAA08BB089801012E000CA0
:10018000440B550B281939094A095B09DC010E9407
:10019000240924EB30E040E050E00E94FA08820E8F
:1001A000931EA41EB51E8C169D062CF0E801801629
:1001B00091060CF4E4012297CC0FDD1F2FB7F894C1
:1001C0008F2D90E0FC01EE0FFF1FE80FF91FE350A9
:1001D000FE4FD283C1832FBFDF91CF911F910F912B
:1001E000FF90BF90AF909F908F900895AF92BF9275
:1001F000CF92DF92EF92FF920F931F93CF93DF93F3
:100200006C017B018B01040F151FEB015E01AE1821
:10021000BF08C017D10759F06991D601ED91FC9143
:100220000190F081E02DC6010995892B79F7C50170
:10023000DF91CF911F910F91FF90EF90DF90CF90C2
:10024000BF90AF900895FC01538D448D252F30E071
:10025000842F90E0821B930B541710F0CF960895D3
:1002600001970895FC01918D828D981761F0A28D00
:10027000AE0FBF2FB11D5D968C91928D9F5F9F73C6
:10028000928F90E008958FEF9FEF0895FC01918D7C
:10029000828D981731F0828DE80FF11D858D90E0E9
:1002A00008958FEF9FEF0895FC01918D228D892F86
:1002B00090E0805C9F4F821B91098F73992708956E
:1002C00080E691E00E94540121E0892B09F420E0AE
:1002D000822F089580E090E0892B29F00E94600130
:1002E00081110C9400000895FC01A48DA80FB92F72
:1002F000B11DA35ABF4F2C91848D90E001968F734E
:100300009927848FA689B7892C93A089B1898C916C
:10031000837080648C93938D848D981306C00288BB
:10032000F389E02D80818F7D80830895EF92FF9285
:100330000F931F93CF93DF93EC0181E0888F9B8D08
:100340008C8D98131AC0E889F989808185FF15C0C2
:100350009FB7F894EE89FF896083E889F9898081E5
:100360008370806480839FBF81E090E0DF91CF91B4
:100370001F910F91FF90EF900895F62E0B8D10E0D6
:100380000F5F1F4F0F731127E02E8C8D8E110CC045
:100390000FB607FCFACFE889F989808185FFF5CF90
:1003A000CE010E947401F1CFEB8DEC0FFD2FF11DFA
:1003B000E35AFF4FF0829FB7F8940B8FEA89FB89CD
:1003C00080818062CFCFCF93DF93EC01888D88232B
:1003D000B9F0AA89BB89E889F9898C9185FD03C0A8
:1003E000808186FD0DC00FB607FCF7CF8C9185FF8D
:1003F000F2CF808185FFEDCFCE010E947401E9CF5D
:10040000DF91CF91089590E0FC01E255FF4F2491D8
:10041000FC01E656FF4F3491FC01EA57FF4FE4918F
:10042000EE23C9F0222339F0233001F1A8F4213062
:1004300019F1223029F1F0E0EE0FFF1FE458FF4FD1
:10044000A591B4918FB7F894EC91611126C03095C5
:100450003E233C938FBF08952730A9F02830C9F080
:10046000243049F7809180008F7D03C08091800007
:100470008F7780938000DFCF84B58F7784BDDBCF0B
:1004800084B58F7DFBCF8091B0008F778093B000D3
:10049000D2CF8091B0008F7DF9CF3E2BDACFCF93B2
:1004A000DF9390E0FC01E656FF4F24918A579F4F5F
:1004B000FC0184918823D1F090E0880F991FFC0102
:1004C000EE58FF4FA591B491FC01E458FF4FC59140
:1004D000D49161110EC09FB7F8948C91E22FE095F2
:1004E0008E238C932881E223E8839FBFDF91CF91F5
:1004F00008958FB7F894EC91E22BEC938FBFF6CF71
:100500003FB7F89480915A0190915B01A0915C01F2
:10051000B0915D0126B5A89B05C02F3F19F001964B
:10052000A11DB11D3FBFBA2FA92F982F8827BC014D
:10053000CD01620F711D811D911D42E0660F771F75
:10054000881F991F4A95D1F708958F929F92AF9275
:10055000BF92CF92DF92EF92FF924B015C010E941B
:1005600080026B017C010E9480026C197D098E095A
:100570009F09683E734081059105A8F321E0821A26
:100580009108A108B10888EEC80E83E0D81EE11CCE
:10059000F11C81149104A104B10429F7FF90EF909C
:1005A000DF90CF90BF90AF909F908F900895089567
:1005B00090E080E00895CF93DF93EC0160E08E81BE
:1005C0000E94030261E08E810E94030260E08E813E
:1005D0000E9403028BE891E00197F1F7DF91CF9140
:1005E0000895CF92DF92EF92FF920F931F93CF93D4
:1005F000DF936C017C0187E0E80EF11CD0E0C0E0E5
:10060000062F10E0B8010C2E02C0759567950A946C
:10061000E2F76170F70181917F010E940302219648
:10062000C430D10579F7C601DF91CF911F910F91A9
:10063000FF90EF90DF90CF900C94DB02CF92DF928F
:10064000EF92FF920F931F93CF93DF93EC01F62E5F
:10065000642F8C810E9403028D818F3F19F060E02E
:100660000E9403020F2D10E08F8584FF25C06E01CC
:1006700087E0C80ED11CF12CE12CB8010E2C02C071
:10068000759567950A94E2F76170F60181916F01A3
:100690000E940302FFEFEF1AFF0A88E0E816F10458
:1006A00061F7CE01DF91CF911F910F91FF90EF90F5
:1006B000DF90CF900C94DB02B80184E075956795CC
:1006C0008A95E1F7CE010E94F1026F2DCE01DF91F4
:1006D000CF911F910F91FF90EF90DF90CF900C94EE
:1006E000F10240E0682F85E292E00C941E03CF9364
:1006F000DF93823029F49091340298609093340211
:10070000809338021092390280E480933A0280E1AB
:1007100080933B0280E580933C0261E08091290256
:100720000E944F0280912A028F3F19F061E00E94DF
:100730004F0261E080912B020E944F02C5E2D2E09D
:100740009E01255232408091340284FD0BC084E02A
:1007500090E021962817390744F461E08E810E94C9
:100760004F02EECF88E090E0F4CF8BE39DE001975D
:10077000F1F760E0809129020E94030260E080911D
:100780002B020E94030280912A028F3F19F060E041
:100790000E9403028091340284FD39C063E085E247
:1007A00092E00E94F102CBE4D6E4CE010197F1F78A
:1007B00063E085E292E00E94F1022197F1F763E0A5
:1007C00085E292E00E94F10283E592E00197F1F761
:1007D00062E085E292E00E94F10280913402806240
:1007E0000E94710384E0809335028CE00E947103C3
:1007F00081E00E9471038BE39FE10197F1F782E0B2
:100800008093360286E0DF91CF910C947103806271
:100810000E9471038BE496E40197F1F78091340212
:1008200080620E94710383E592E00197F1F7809165
:10083000340280620E947103D0CF909138028917F0
:1008400010F08FEF890FE82FF0E0EB5DFD4F84890A
:1008500080680C94710341E00E941E0381E090E0E7
:100860000895FB0101900020E9F73197AF01461B85
:10087000570BDC01ED91FC910280F381E02D09948E
:100880004F925F926F927F928F929F92AF92BF92A0
:10089000CF92DF92EF92FF920F931F93CF93DF934C
:1008A000CDB7DEB7A1970FB6F894DEBF0FBECDBFB0
:1008B0008C016B01770FEE08FF08F7FE49C0DC01E1
:1008C000ED91FC910190F081E02D6DE209955C01C4
:1008D00022273327A9012C193D094E095F0919A2C6
:1008E000FE01B1967F019AE0492E512C612C712CAA
:1008F000CA01B901A30192010E942C09605DD701D0
:100900006E937D01211531054105510589F790E070
:1009100080E0109721F0BD01C8010E9431048A0DCA
:100920009B1DA1960FB6F894DEBF0FBECDBFDF9121
:10093000CF911F910F91FF90EF90DF90CF90BF90DC
:10094000AF909F908F907F906F905F904F900895A1
:10095000A701960119A2FE01B1967F018AE0882EB7
:10096000912CA12CB12CCA01B901A50194010E94BE
:100970002C09605DD7016E937D012115310541057C
:10098000510589F790E080E0109759F2BD01C80148
:100990000E943104C6CF0C9431040F931F9360E082
:1009A00084E00E94030283E090E00197F1F761E0A8
:1009B00084E00E94030283E290E00197F1F760E097
:1009C00084E00E940302EFE9F0E06491EBE8F0E0DC
:1009D000E491F0E0EE0FFF1FE859FF4F85919491ED
:1009E00000E412E42FE030E0462F0E947706611504
:1009F00071058105910529F06F5F7F4F8F4F9F4FE4
:100A00009F700E94950926E933E44BE05DE30E9464
:100A1000F90920E030E040E05FE30E94F9090E941C
:100A20005D0970935F0160935E01CB011F910F918F
:100A300008951F920F920FB60F9211242F933F9398
:100A40004F935F936F937F938F939F93AF93BF93D6
:100A5000EF93FF9380E691E00E947401FF91EF9184
:100A6000BF91AF919F918F917F916F915F914F91C6
:100A70003F912F910F900FBE0F901F9018951F92CE
:100A80000F920FB60F9211242F938F939F93EF9392
:100A9000FF93E0917001F09171018081E091760106
:100AA000F091770182FD1BC09081809179018F5F69
:100AB0008F7320917A01821741F0E0917901F0E083
:100AC000E05AFE4F958F80937901FF91EF919F91AE
:100AD0008F912F910F900FBE0F901F9018958081CE
:100AE000F4CF1F920F920FB60F9211242F933F93C2
:100AF0008F939F93AF93BF9380915601909157012D
:100B0000A0915801B09159013091550123E0230F74
:100B10002D3758F50196A11DB11D209355018093E5
:100B2000560190935701A0935801B09359018091B9
:100B30005A0190915B01A0915C01B0915D01019619
:100B4000A11DB11D80935A0190935B01A0935C019C
:100B5000B0935D01BF91AF919F918F913F912F9184
:100B60000F900FBE0F901F90189526E8230F029646
:100B7000A11DB11DD2CF1F920F920FB60F9211245B
:100B80002F933F934F935F936F937F938F939F9395
:100B9000AF93BF93CF93DF93EF93FF938091540173
:100BA000C0912102D0E087FF24C0109285001092EE
:100BB0008400809154018F5F80935401809154018F
:100BC000082E000C990B8C179D0724F4809154017A
:100BD0008C30C4F18091840090918500049680341B
:100BE0009C4908F47AC08091840090918500049615
:100BF00076C080915401082E000C990B8C179D072C
:100C0000C4F6E09154018E2FEE0F990BFC01EE0F0C
:100C1000FF1FE80FF91FE350FE4F808186FFC9CF09
:100C2000E09154018E2FEE0F990BFC01EE0FFF1F88
:100C3000E80FF91FE350FE4F808160E08F730E9440
:100C40000302B7CF2091840030918500E0915401D8
:100C50008E2FEE0F990BFC01EE0FFF1FE80FF91F0F
:100C6000E350FE4F81819281820F931F9093890000
:100C700080938800E09154018E2FEE0F990BFC01B8
:100C8000EE0FFF1FE80FF91FE350FE4F808186FF34
:100C900011C0E09154018E2FEE0F990BFC01EE0F65
:100CA000FF1FE80FF91FE350FE4F808161E08F7353
:100CB0000E940302FF91EF91DF91CF91BF91AF911D
:100CC0009F918F917F916F915F914F913F912F9164
:100CD0000F900FBE0F901F90189580E49CE99093A1
:100CE0008900809388008FEF80935401E3CFCF92E7
:100CF000DF92EF92FF920F931F93E82FF92F05C019
:100D0000015011092109310961F19081962394174D
:100D1000B9F305C0015011092109310911F1908180
:100D200096239413F7CFC12CD12CE12CF12C0AC0BF
:100D30008FEFC81AD80AE80AF80A0C151D052E0507
:100D40003F0579F080818623841791F36C2D7D2DEA
:100D50008E2D9F2D1F910F91FF90EF90DF90CF90E0
:100D6000089560E070E080E090E01F910F91FF90A7
:100D7000EF90DF90CF900895CF931092630110927F
:100D8000620188EE93E0A0E0B0E08093640190936C
:100D90006501A0936601B093670184E091E09093B0
:100DA00061018093600185EC90E090936D018093E8
:100DB0006C0184EC90E090936F0180936E0180EC65
:100DC00090E0909371018093700181EC90E090939A
:100DD00073018093720182EC90E09093750180938F
:100DE000740186EC90E090937701809376011092E5
:100DF000790110927A0110927B0110927C0110927D
:100E000028021092270286E191E0909326028093B7
:100E1000250288E080932902CFEFC0932A0289E05F
:100E200080932B028AE080932C028BE080932D022A
:100E30008CE080932E028DE080932F02109230027E
:100E40001092310210923202109233021092340248
:100E500081E00E947703809121028C30A0F491E020
:100E6000980F909321028093220290E0FC01EE0FF4
:100E7000FF1FE80FF91FE350FE4F88EB9BE09283C2
:100E80008183CF910895C0932202FBCF789484B5DB
:100E9000826084BD84B5816084BD85B5826085BD76
:100EA00085B5816085BD80916E00816080936E0004
:100EB00010928100809181008260809381008091F6
:100EC00081008160809381008091800081608093A7
:100ED00080008091B10084608093B1008091B00067
:100EE00081608093B00080917A00846080937A0062
:100EF00080917A00826080937A0080917A0081608C
:100F000080937A0080917A00806880937A001092B2
:100F1000C10082E00E947703E0917001F0917101BD
:100F200082E08083E0916C01F0916D011082E0918C
:100F30006E01F0916F018FEC808310927801E09147
:100F40007401F091750186E08083E0917201F09167
:100F50007301808180618083E0917201F09173015F
:100F6000808188608083E0917201F09173018081BB
:100F700080688083E0917201F091730180818F7DA0
:100F80008083809122028C3008F051C061E083E0C0
:100F90000E944F0280912202282F30E0F901EE0FCB
:100FA000FF1FE20FF31FE350FE4F9081907C936090
:100FB000908310922302109224022CE0622F0E9450
:100FC0008E0A829FB001112430E020E0AB01420F75
:100FD000531FFA01EE0FFF1FE40FF51FE350FE4F02
:100FE000908196FD16C02F5F3F4F2C30310571F771
:100FF00081110FC01092800082E0809381001092D6
:10100000850010928400B19A80916F008260809375
:101010006F00E09122028E2F90E0FC01EE0FFF1F87
:10102000E80FF91FE350FE4F80818064808361E008
:1010300084E00E944F0260E085E00E944F0280E061
:101040000E941D046EE171E085E292E00E94CB04F3
:1010500081E00E941D046AE271E085E292E00E9454
:10106000CB0468EB7BE080E090E00E94A50281E089
:101070000E9471038BE39FE10197F1F700E010E01C
:10108000D0E0C0E0CE010E948C006AE070E080E019
:1010900090E00E94A5020E94CD0490935F0180938E
:1010A0005E01BE0180E691E00E94400468E371E0C9
:1010B00080E691E00E94CB0460915E0170915F0137
:1010C00080E691E00E9440046AE371E080E691E0EE
:1010D0000E94CB0481E00E941D0460915E0170912A
:1010E0005F0185E292E00E9440046AE070E080E0E7
:1010F00090E00E94A50281E00E941D046CE371E073
:1011000085E292E00E94CB042196C53BD10509F00F
:10111000B9CF80E00E941D0463E471E085E292E0B3
:101120000E94CB0465E070E080E090E00E94A502A0
:10113000C4EBD0E0CE010E948C006AE070E080E059
:1011400090E00E94A5020E94CD0490935F018093DD
:101150005E01BE0180E691E00E94400468E371E018
:1011600080E691E00E94CB0460915E0170915F0186
:1011700080E691E00E9440046AE371E080E691E03D
:101180000E94CB0481E00E941D0460915E01709179
:101190005F0185E292E00E9440046AE070E080E036
:1011A00090E00E94A50281E00E941D046CE371E0C2
:1011B00085E292E00E94CB04219709F0BBCF80E04A
:1011C0000E941D0463E471E085E292E00E94CB047A
:1011D00065E070E080E090E00E94A5020115110535
:1011E00009F44ECF0E946001882309F449CF0E9480
:1011F000000046CF052E97FB1EF400940E941109B3
:1012000057FD07D00E942C0907FC03D04EF40C9424
:10121000110950954095309521953F4F4F4F5F4FA5
:10122000089590958095709561957F4F8F4F9F4F52
:1012300008950E944E09A59F900DB49F900DA49F04
:10124000800D911D11240895B7FF0C9419090E9477
:101250001909821B930B0895A1E21A2EAA1BBB1B2E
:10126000FD010DC0AA1FBB1FEE1FFF1FA217B30772
:10127000E407F50720F0A21BB30BE40BF50B661F88
:10128000771F881F991F1A9469F76095709580954C
:1012900090959B01AC01BD01CF010895A29FB001C3
:1012A000B39FC001A39F700D811D1124911DB29F9A
:1012B000700D811D1124911D08950E946409689488
:1012C000B1110C94F30908950E94D80988F09F5732
:1012D00098F0B92F9927B751B0F0E1F0660F771F5A
:1012E000881F991F1AF0BA95C9F714C0B13091F050
:1012F0000E94F209B1E008950C94F209672F782F4B
:101300008827B85F39F0B93FCCF386957795679514
:10131000B395D9F73EF490958095709561957F4F80
:101320008F4F9F4F0895E89409C097FB3EF4909526
:101330008095709561957F4F8F4F9F4F9923A9F0AE
:10134000F92F96E9BB279395F6958795779567953D
:10135000B795F111F8CFFAF4BB0F11F460FF1BC081
:101360006F5F7F4F8F4F9F4F16C0882311F096E914
:1013700011C0772321F09EE8872F762F05C06623C2
:1013800071F096E8862F70E060E02AF09A95660F7B
:10139000771F881FDAF7880F9695879597F9089534
:1013A00057FD9058440F551F59F05F3F71F0479516
:1013B000880F97FB991F61F09F3F79F087950895FB
:1013C000121613061406551FF2CF4695F1DF08C01A
:1013D000161617061806991FF1CF86957105610537
:1013E00008940895E894BB2766277727CB0197F9DF
:1013F00008950E940C0A0C947D0A0E946F0A38F02E
:101400000E94760A20F0952311F00C94660A0C9441
:101410006C0A11240C94F3090E94D00970F3959F73
:10142000C1F3950F50E0551F629FF001729FBB27DB
:10143000F00DB11D639FAA27F00DB11DAA1F649F77
:101440006627B00DA11D661F829F2227B00DA11D2A
:10145000621F739FB00DA11D621F839FA00D611DB0
:10146000221F749F3327A00D611D231F849F600DD1
:10147000211D822F762F6A2F11249F5750409AF0FA
:10148000F1F088234AF0EE0FFF1FBB1F661F771F86
:10149000881F91505040A9F79E3F510580F00C9451
:1014A000660A0C94F3095F3FE4F3983ED4F3869503
:1014B00077956795B795F795E7959F5FC1F7FE2BF1
:1014C000880F911D9695879597F9089597F99F67CD
:1014D00080E870E060E008959FEF80EC08950024BC
:1014E0000A941616170618060906089500240A9489
:1014F00012161306140605060895092E0394000C0F
:1015000011F4882352F0BB0F40F4BF2B11F460FF9D
:1015100004C06F5F7F4F8F4F9F4F0895991B79E0F5
:1015200004C0991F961708F0961B881F7A95C9F773
:1015300080950895EE0FFF1F0590F491E02D09941A
:04154000F894FFCF4D
:10154400000000009601F6002301E301540132017A
:101554004601000000002B04F600D802D702534FC6
:101564004E4152205241444152004D4F44454C207B
:1015740053595354454D20002C002E002020202088
:101584002020004D4F4E49544F52494E47202020B1
:041594002020000013
:107E0000112484B714BE81FFF0D085E080938100F7
:107E100082E08093C00088E18093C10086E0809377
:107E2000C20080E18093C4008EE0C9D0259A86E02C
:107E300020E33CEF91E0309385002093840096BBD3
:107E4000B09BFECF1D9AA8958150A9F7CC24DD24C4
:107E500088248394B5E0AB2EA1E19A2EF3E0BF2EE7
:107E6000A2D0813461F49FD0082FAFD0023811F036
:107E7000013811F484E001C083E08DD089C08234E0
:107E800011F484E103C0853419F485E0A6D080C0E4
:107E9000853579F488D0E82EFF2485D0082F10E0AE
:107EA000102F00270E291F29000F111F8ED06801E7
:107EB0006FC0863521F484E090D080E0DECF843638
:107EC00009F040C070D06FD0082F6DD080E0C81688
:107ED00080E7D80618F4F601B7BEE895C0E0D1E017
:107EE00062D089930C17E1F7F0E0CF16F0E7DF06D8
:107EF00018F0F601B7BEE89568D007B600FCFDCFD4
:107F0000A601A0E0B1E02C9130E011968C91119780
:107F100090E0982F8827822B932B1296FA010C0160
:107F200087BEE89511244E5F5F4FF1E0A038BF0790
:107F300051F7F601A7BEE89507B600FCFDCF97BE46
:107F4000E89526C08437B1F42ED02DD0F82E2BD052
:107F50003CD0F601EF2C8F010F5F1F4F84911BD097
:107F6000EA94F801C1F70894C11CD11CFA94CF0C13
:107F7000D11C0EC0853739F428D08EE10CD085E9AC
:107F80000AD08FE07ACF813511F488E018D01DD067
:107F900080E101D065CF982F8091C00085FFFCCF94
:107FA0009093C60008958091C00087FFFCCF809118
:107FB000C00084FD01C0A8958091C6000895E0E648
:107FC000F0E098E1908380830895EDDF803219F02E
:107FD00088E0F5DFFFCF84E1DECF1F93182FE3DFCA
:107FE0001150E9F7F2DF1F91089580E0E8DFEE27F6
:047FF000FF270994CA
:027FFE00040479
:0400000300007E007B
:00000001FF
